{
  "_format": "hh-sol-artifact-1",
  "contractName": "PredictionMarket",
  "sourceName": "contracts/PredictionMarket.sol",
  "abi": [
    {
      "inputs": [
        {
          "internalType": "enum PredictionMarket.Market",
          "name": "_market",
          "type": "uint8"
        },
        {
          "internalType": "int256",
          "name": "_predictedPrice",
          "type": "int256"
        },
        {
          "internalType": "uint256",
          "name": "_endTime",
          "type": "uint256"
        }
      ],
      "stateMutability": "nonpayable",
      "type": "constructor"
    },
    {
      "inputs": [
        {
          "internalType": "enum PredictionMarket.Vote",
          "name": "_vote",
          "type": "uint8"
        }
      ],
      "name": "buyShares",
      "outputs": [],
      "stateMutability": "payable",
      "type": "function"
    },
    {
      "inputs": [],
      "name": "currentPrice",
      "outputs": [
        {
          "internalType": "uint256",
          "name": "",
          "type": "uint256"
        }
      ],
      "stateMutability": "view",
      "type": "function"
    },
    {
      "inputs": [],
      "name": "endTime",
      "outputs": [
        {
          "internalType": "uint256",
          "name": "",
          "type": "uint256"
        }
      ],
      "stateMutability": "view",
      "type": "function"
    },
    {
      "inputs": [],
      "name": "isResolved",
      "outputs": [
        {
          "internalType": "bool",
          "name": "",
          "type": "bool"
        }
      ],
      "stateMutability": "view",
      "type": "function"
    },
    {
      "inputs": [],
      "name": "loser",
      "outputs": [
        {
          "internalType": "enum PredictionMarket.Vote",
          "name": "",
          "type": "uint8"
        }
      ],
      "stateMutability": "view",
      "type": "function"
    },
    {
      "inputs": [],
      "name": "market",
      "outputs": [
        {
          "internalType": "enum PredictionMarket.Market",
          "name": "",
          "type": "uint8"
        }
      ],
      "stateMutability": "view",
      "type": "function"
    },
    {
      "inputs": [
        {
          "internalType": "enum PredictionMarket.Vote",
          "name": "",
          "type": "uint8"
        }
      ],
      "name": "numberShares",
      "outputs": [
        {
          "internalType": "uint256",
          "name": "",
          "type": "uint256"
        }
      ],
      "stateMutability": "view",
      "type": "function"
    },
    {
      "inputs": [],
      "name": "resolveMarket",
      "outputs": [],
      "stateMutability": "nonpayable",
      "type": "function"
    },
    {
      "inputs": [
        {
          "internalType": "address",
          "name": "",
          "type": "address"
        },
        {
          "internalType": "enum PredictionMarket.Vote",
          "name": "",
          "type": "uint8"
        }
      ],
      "name": "sharesPerPerson",
      "outputs": [
        {
          "internalType": "uint256",
          "name": "",
          "type": "uint256"
        }
      ],
      "stateMutability": "view",
      "type": "function"
    },
    {
      "inputs": [],
      "name": "winner",
      "outputs": [
        {
          "internalType": "enum PredictionMarket.Vote",
          "name": "",
          "type": "uint8"
        }
      ],
      "stateMutability": "view",
      "type": "function"
    },
    {
      "inputs": [],
      "name": "winningPerShare",
      "outputs": [
        {
          "internalType": "uint256",
          "name": "",
          "type": "uint256"
        }
      ],
      "stateMutability": "view",
      "type": "function"
    },
    {
      "inputs": [],
      "name": "withdrawWinnings",
      "outputs": [],
      "stateMutability": "nonpayable",
      "type": "function"
    }
  ],
  "bytecode": "0x60806040526000600660006101000a81548160ff0219169083151502179055503480156200002c57600080fd5b506040516200154e3803806200154e833981810160405281019062000052919062000293565b82600260006101000a81548160ff021916908360038111156200007a576200007962000303565b5b021790555081600381905550806004819055506200009e83620000b560201b60201c565b662386f26fc10000600581905550505050620003ab565b60006040518060800160405280735498bb86bc934c8d34fda08e81d444153d0d06ad73ffffffffffffffffffffffffffffffffffffffff1673ffffffffffffffffffffffffffffffffffffffff1681526020017331cf013a08c6ac228c94551d535d5bafe19c602a73ffffffffffffffffffffffffffffffffffffffff1673ffffffffffffffffffffffffffffffffffffffff1681526020017386d67c3d38d2bcee722e601025c25a575021c6ea73ffffffffffffffffffffffffffffffffffffffff1673ffffffffffffffffffffffffffffffffffffffff1681526020017334c4c526902d88a3aa98db8a9b802603eb1e347073ffffffffffffffffffffffffffffffffffffffff1673ffffffffffffffffffffffffffffffffffffffff16815250905080826003811115620001f157620001f062000303565b5b6004811062000205576200020462000332565b5b6020020151600860006101000a81548173ffffffffffffffffffffffffffffffffffffffff021916908373ffffffffffffffffffffffffffffffffffffffff1602179055505050565b6000815190506200025f8162000366565b92915050565b600081519050620002768162000377565b92915050565b6000815190506200028d8162000391565b92915050565b600080600060608486031215620002af57620002ae62000361565b5b6000620002bf868287016200024e565b9350506020620002d28682870162000265565b9250506040620002e5868287016200027c565b9150509250925092565b6000819050919050565b6000819050919050565b7f4e487b7100000000000000000000000000000000000000000000000000000000600052602160045260246000fd5b7f4e487b7100000000000000000000000000000000000000000000000000000000600052603260045260246000fd5b600080fd5b600481106200037457600080fd5b50565b6200038281620002ef565b81146200038e57600080fd5b50565b6200039c81620002f9565b8114620003a857600080fd5b50565b61119380620003bb6000396000f3fe6080604052600436106100a75760003560e01c80639d1b464a116100645780639d1b464a1461019d578063cc42e83a146101c8578063d064a8dc146101df578063dbb3f5371461021c578063dfbf53ae14610247578063e82898b314610272576100a7565b80632b9b55b3146100ac5780633197cbb6146100c357806334f5e9f9146100ee57806374f72fab1461010a57806380f55605146101475780639790232414610172575b600080fd5b3480156100b857600080fd5b506100c161029d565b005b3480156100cf57600080fd5b506100d86105fd565b6040516100e59190610d1a565b60405180910390f35b61010860048036038101906101039190610a87565b610603565b005b34801561011657600080fd5b50610131600480360381019061012c9190610a87565b61074f565b60405161013e9190610d1a565b60405180910390f35b34801561015357600080fd5b5061015c610767565b6040516101699190610c44565b60405180910390f35b34801561017e57600080fd5b5061018761077a565b6040516101949190610d1a565b60405180910390f35b3480156101a957600080fd5b506101b2610780565b6040516101bf9190610d1a565b60405180910390f35b3480156101d457600080fd5b506101dd610786565b005b3480156101eb57600080fd5b5061020660048036038101906102019190610a47565b610980565b6040516102139190610d1a565b60405180910390f35b34801561022857600080fd5b506102316109a5565b60405161023e9190610c29565b60405180910390f35b34801561025357600080fd5b5061025c6109b8565b6040516102699190610c5f565b60405180910390f35b34801561027e57600080fd5b506102876109cb565b6040516102949190610c5f565b60405180910390f35b600660009054906101000a900460ff16156102ed576040517f08c379a00000000000000000000000000000000000000000000000000000000081526004016102e490610cba565b60405180910390fd5b6004544211610331576040517f08c379a000000000000000000000000000000000000000000000000000000000815260040161032890610c7a565b60405180910390fd5b6000806000600860009054906101000a900473ffffffffffffffffffffffffffffffffffffffff1673ffffffffffffffffffffffffffffffffffffffff1663feaf968c6040518163ffffffff1660e01b815260040160a06040518083038186803b15801561039e57600080fd5b505afa1580156103b2573d6000803e3d6000fd5b505050506040513d601f19601f820116820180604052508101906103d69190610ab4565b909150508093508194508295505050505b6004548111156104cd5782806103fc90610ef4565b935050600860009054906101000a900473ffffffffffffffffffffffffffffffffffffffff1673ffffffffffffffffffffffffffffffffffffffff16639a6fc8f5846040518263ffffffff1660e01b815260040161045a9190610d35565b60a06040518083038186803b15801561047257600080fd5b505afa158015610486573d6000803e3d6000fd5b505050506040513d601f19601f820116820180604052508101906104aa9190610ab4565b9091505080935081945082955050505060045481116104c8576104cd565b6103e7565b60011561052f576000600660016101000a81548160ff021916908360018111156104fa576104f9610f7c565b5b02179055506001600660026101000a81548160ff0219169083600181111561052557610524610f7c565b5b0217905550610586565b6001600660016101000a81548160ff0219169083600181111561055557610554610f7c565b5b02179055506000600660026101000a81548160ff021916908360018111156105805761057f610f7c565b5b02179055505b6001600660006101000a81548160ff021916908315150217905550600080600660019054906101000a900460ff1660018111156105c6576105c5610f7c565b5b60018111156105d8576105d7610f7c565b5b815260200190815260200160002054476105f29190610db7565b600781905550505050565b60045481565b600660009054906101000a900460ff1615801561062257506004544211155b610661576040517f08c379a000000000000000000000000000000000000000000000000000000000815260040161065890610c9a565b60405180910390fd5b6000600554346106719190610db7565b90508060008084600181111561068a57610689610f7c565b5b600181111561069c5761069b610f7c565b5b815260200190815260200160002060008282546106b99190610d61565b9250508190555080600160003373ffffffffffffffffffffffffffffffffffffffff1673ffffffffffffffffffffffffffffffffffffffff168152602001908152602001600020600084600181111561071557610714610f7c565b5b600181111561072757610726610f7c565b5b815260200190815260200160002060008282546107449190610d61565b925050819055505050565b60006020528060005260406000206000915090505481565b600260009054906101000a900460ff1681565b60075481565b60055481565b600660009054906101000a900460ff166107d5576040517f08c379a00000000000000000000000000000000000000000000000000000000081526004016107cc90610cda565b60405180910390fd5b6000600160003373ffffffffffffffffffffffffffffffffffffffff1673ffffffffffffffffffffffffffffffffffffffff1681526020019081526020016000206000600660019054906101000a900460ff16600181111561083a57610839610f7c565b5b600181111561084c5761084b610f7c565b5b8152602001908152602001600020549050600081116108a0576040517f08c379a000000000000000000000000000000000000000000000000000000000815260040161089790610cfa565b60405180910390fd5b6000600160003373ffffffffffffffffffffffffffffffffffffffff1673ffffffffffffffffffffffffffffffffffffffff1681526020019081526020016000206000600660019054906101000a900460ff16600181111561090557610904610f7c565b5b600181111561091757610916610f7c565b5b8152602001908152602001600020819055503373ffffffffffffffffffffffffffffffffffffffff166108fc600754836109519190610de8565b9081150290604051600060405180830381858888f1935050505015801561097c573d6000803e3d6000fd5b5050565b6001602052816000526040600020602052806000526040600020600091509150505481565b600660009054906101000a900460ff1681565b600660019054906101000a900460ff1681565b600660029054906101000a900460ff1681565b6000813590506109ed816110f1565b92915050565b600081359050610a0281611108565b92915050565b600081519050610a1781611118565b92915050565b600081519050610a2c8161112f565b92915050565b600081519050610a4181611146565b92915050565b60008060408385031215610a5e57610a5d610fab565b5b6000610a6c858286016109de565b9250506020610a7d858286016109f3565b9150509250929050565b600060208284031215610a9d57610a9c610fab565b5b6000610aab848285016109f3565b91505092915050565b600080600080600060a08688031215610ad057610acf610fab565b5b6000610ade88828901610a32565b9550506020610aef88828901610a08565b9450506040610b0088828901610a1d565b9350506060610b1188828901610a1d565b9250506080610b2288828901610a32565b9150509295509295909350565b610b3881610e54565b82525050565b610b4781610ed0565b82525050565b610b5681610ee2565b82525050565b6000610b69602483610d50565b9150610b7482610fb0565b604082019050919050565b6000610b8c602683610d50565b9150610b9782610fff565b604082019050919050565b6000610baf602083610d50565b9150610bba8261104e565b602082019050919050565b6000610bd2602083610d50565b9150610bdd82611077565b602082019050919050565b6000610bf5601a83610d50565b9150610c00826110a0565b602082019050919050565b610c1481610eb0565b82525050565b610c2381610eba565b82525050565b6000602082019050610c3e6000830184610b2f565b92915050565b6000602082019050610c596000830184610b3e565b92915050565b6000602082019050610c746000830184610b4d565b92915050565b60006020820190508181036000830152610c9381610b5c565b9050919050565b60006020820190508181036000830152610cb381610b7f565b9050919050565b60006020820190508181036000830152610cd381610ba2565b9050919050565b60006020820190508181036000830152610cf381610bc5565b9050919050565b60006020820190508181036000830152610d1381610be8565b9050919050565b6000602082019050610d2f6000830184610c0b565b92915050565b6000602082019050610d4a6000830184610c1a565b92915050565b600082825260208201905092915050565b6000610d6c82610eb0565b9150610d7783610eb0565b9250827fffffffffffffffffffffffffffffffffffffffffffffffffffffffffffffffff03821115610dac57610dab610f1e565b5b828201905092915050565b6000610dc282610eb0565b9150610dcd83610eb0565b925082610ddd57610ddc610f4d565b5b828204905092915050565b6000610df382610eb0565b9150610dfe83610eb0565b9250817fffffffffffffffffffffffffffffffffffffffffffffffffffffffffffffffff0483118215151615610e3757610e36610f1e565b5b828202905092915050565b6000610e4d82610e90565b9050919050565b60008115159050919050565b6000819050610e6e826110c9565b919050565b6000819050610e81826110dd565b919050565b6000819050919050565b600073ffffffffffffffffffffffffffffffffffffffff82169050919050565b6000819050919050565b600069ffffffffffffffffffff82169050919050565b6000610edb82610e60565b9050919050565b6000610eed82610e73565b9050919050565b6000610eff82610eba565b91506000821415610f1357610f12610f1e565b5b600182039050919050565b7f4e487b7100000000000000000000000000000000000000000000000000000000600052601160045260246000fd5b7f4e487b7100000000000000000000000000000000000000000000000000000000600052601260045260246000fd5b7f4e487b7100000000000000000000000000000000000000000000000000000000600052602160045260246000fd5b600080fd5b7f43616e6e6f74207265736f6c7665206d61726b6574206265666f726520656e6460008201527f54696d6500000000000000000000000000000000000000000000000000000000602082015250565b7f43616e6e6f742062757920736861726573206166746572206d61726b6574206560008201527f6e6454696d650000000000000000000000000000000000000000000000000000602082015250565b7f4d61726b65742068617320616c7265616479206265656e207265736f6c766564600082015250565b7f4d61726b657420686173206e6f74206265656e207265736f6c76656420796574600082015250565b7f596f752068617665206e6f2077696e6e696e6720736861726573000000000000600082015250565b600481106110da576110d9610f7c565b5b50565b600281106110ee576110ed610f7c565b5b50565b6110fa81610e42565b811461110557600080fd5b50565b6002811061111557600080fd5b50565b61112181610e86565b811461112c57600080fd5b50565b61113881610eb0565b811461114357600080fd5b50565b61114f81610eba565b811461115a57600080fd5b5056fea2646970667358221220d50f2af9ba423d4ad23ad0b6d8efdef363e44e088406c2a44cd50b049dd7aec664736f6c63430008070033",
  "linkReferences": {},
  "deployedLinkReferences": {}
}