{
  "_format": "hh-sol-artifact-1",
  "contractName": "PredictionMarket",
  "sourceName": "contracts/PredictionMarket.sol",
  "abi": [
    {
      "inputs": [
        {
          "internalType": "enum PredictionMarket.Market",
          "name": "_market",
          "type": "uint8"
        },
        {
          "internalType": "int256",
          "name": "_predictedPrice",
          "type": "int256"
        },
        {
          "internalType": "uint256",
          "name": "_endTime",
          "type": "uint256"
        }
      ],
      "stateMutability": "nonpayable",
      "type": "constructor"
    },
    {
      "inputs": [
        {
          "internalType": "enum PredictionMarket.Vote",
          "name": "_vote",
          "type": "uint8"
        }
      ],
      "name": "buyShares",
      "outputs": [],
      "stateMutability": "payable",
      "type": "function"
    },
    {
      "inputs": [],
      "name": "currentPrice",
      "outputs": [
        {
          "internalType": "uint256",
          "name": "",
          "type": "uint256"
        }
      ],
      "stateMutability": "view",
      "type": "function"
    },
    {
      "inputs": [],
      "name": "endTime",
      "outputs": [
        {
          "internalType": "uint256",
          "name": "",
          "type": "uint256"
        }
      ],
      "stateMutability": "view",
      "type": "function"
    },
    {
      "inputs": [],
      "name": "isResolved",
      "outputs": [
        {
          "internalType": "bool",
          "name": "",
          "type": "bool"
        }
      ],
      "stateMutability": "view",
      "type": "function"
    },
    {
      "inputs": [],
      "name": "loser",
      "outputs": [
        {
          "internalType": "enum PredictionMarket.Vote",
          "name": "",
          "type": "uint8"
        }
      ],
      "stateMutability": "view",
      "type": "function"
    },
    {
      "inputs": [],
      "name": "market",
      "outputs": [
        {
          "internalType": "enum PredictionMarket.Market",
          "name": "",
          "type": "uint8"
        }
      ],
      "stateMutability": "view",
      "type": "function"
    },
    {
      "inputs": [
        {
          "internalType": "enum PredictionMarket.Vote",
          "name": "",
          "type": "uint8"
        }
      ],
      "name": "numberShares",
      "outputs": [
        {
          "internalType": "uint256",
          "name": "",
          "type": "uint256"
        }
      ],
      "stateMutability": "view",
      "type": "function"
    },
    {
      "inputs": [],
      "name": "predictedPrice",
      "outputs": [
        {
          "internalType": "int256",
          "name": "",
          "type": "int256"
        }
      ],
      "stateMutability": "view",
      "type": "function"
    },
    {
      "inputs": [],
      "name": "resolveMarket",
      "outputs": [],
      "stateMutability": "nonpayable",
      "type": "function"
    },
    {
      "inputs": [
        {
          "internalType": "address",
          "name": "",
          "type": "address"
        },
        {
          "internalType": "enum PredictionMarket.Vote",
          "name": "",
          "type": "uint8"
        }
      ],
      "name": "sharesPerPerson",
      "outputs": [
        {
          "internalType": "uint256",
          "name": "",
          "type": "uint256"
        }
      ],
      "stateMutability": "view",
      "type": "function"
    },
    {
      "inputs": [],
      "name": "winner",
      "outputs": [
        {
          "internalType": "enum PredictionMarket.Vote",
          "name": "",
          "type": "uint8"
        }
      ],
      "stateMutability": "view",
      "type": "function"
    },
    {
      "inputs": [],
      "name": "winningPerShare",
      "outputs": [
        {
          "internalType": "uint256",
          "name": "",
          "type": "uint256"
        }
      ],
      "stateMutability": "view",
      "type": "function"
    },
    {
      "inputs": [],
      "name": "withdrawWinnings",
      "outputs": [],
      "stateMutability": "nonpayable",
      "type": "function"
    }
  ],
  "bytecode": "0x60806040526000600660006101000a81548160ff0219169083151502179055503480156200002c57600080fd5b50604051620015b8380380620015b8833981810160405281019062000052919062000293565b82600260006101000a81548160ff021916908360038111156200007a576200007962000303565b5b021790555081600381905550806004819055506200009e83620000b560201b60201c565b662386f26fc10000600581905550505050620003ab565b60006040518060800160405280735498bb86bc934c8d34fda08e81d444153d0d06ad73ffffffffffffffffffffffffffffffffffffffff1673ffffffffffffffffffffffffffffffffffffffff1681526020017331cf013a08c6ac228c94551d535d5bafe19c602a73ffffffffffffffffffffffffffffffffffffffff1673ffffffffffffffffffffffffffffffffffffffff1681526020017386d67c3d38d2bcee722e601025c25a575021c6ea73ffffffffffffffffffffffffffffffffffffffff1673ffffffffffffffffffffffffffffffffffffffff1681526020017334c4c526902d88a3aa98db8a9b802603eb1e347073ffffffffffffffffffffffffffffffffffffffff1673ffffffffffffffffffffffffffffffffffffffff16815250905080826003811115620001f157620001f062000303565b5b6004811062000205576200020462000332565b5b6020020151600860006101000a81548173ffffffffffffffffffffffffffffffffffffffff021916908373ffffffffffffffffffffffffffffffffffffffff1602179055505050565b6000815190506200025f8162000366565b92915050565b600081519050620002768162000377565b92915050565b6000815190506200028d8162000391565b92915050565b600080600060608486031215620002af57620002ae62000361565b5b6000620002bf868287016200024e565b9350506020620002d28682870162000265565b9250506040620002e5868287016200027c565b9150509250925092565b6000819050919050565b6000819050919050565b7f4e487b7100000000000000000000000000000000000000000000000000000000600052602160045260246000fd5b7f4e487b7100000000000000000000000000000000000000000000000000000000600052603260045260246000fd5b600080fd5b600481106200037457600080fd5b50565b6200038281620002ef565b81146200038e57600080fd5b50565b6200039c81620002f9565b8114620003a857600080fd5b50565b6111fd80620003bb6000396000f3fe6080604052600436106100c25760003560e01c80639d1b464a1161007f578063d064a8dc11610059578063d064a8dc14610225578063dbb3f53714610262578063dfbf53ae1461028d578063e82898b3146102b8576100c2565b80639d1b464a146101b8578063a27afd67146101e3578063cc42e83a1461020e576100c2565b80632b9b55b3146100c75780633197cbb6146100de57806334f5e9f91461010957806374f72fab1461012557806380f5560514610162578063979023241461018d575b600080fd5b3480156100d357600080fd5b506100dc6102e3565b005b3480156100ea57600080fd5b506100f3610637565b6040516101009190610d84565b60405180910390f35b610123600480360381019061011e9190610ac7565b61063d565b005b34801561013157600080fd5b5061014c60048036038101906101479190610ac7565b610789565b6040516101599190610d84565b60405180910390f35b34801561016e57600080fd5b506101776107a1565b6040516101849190610c93565b60405180910390f35b34801561019957600080fd5b506101a26107b4565b6040516101af9190610d84565b60405180910390f35b3480156101c457600080fd5b506101cd6107ba565b6040516101da9190610d84565b60405180910390f35b3480156101ef57600080fd5b506101f86107c0565b6040516102059190610cc9565b60405180910390f35b34801561021a57600080fd5b506102236107c6565b005b34801561023157600080fd5b5061024c60048036038101906102479190610a87565b6109c0565b6040516102599190610d84565b60405180910390f35b34801561026e57600080fd5b506102776109e5565b6040516102849190610c78565b60405180910390f35b34801561029957600080fd5b506102a26109f8565b6040516102af9190610cae565b60405180910390f35b3480156102c457600080fd5b506102cd610a0b565b6040516102da9190610cae565b60405180910390f35b600660009054906101000a900460ff1615610333576040517f08c379a000000000000000000000000000000000000000000000000000000000815260040161032a90610d24565b60405180910390fd5b6004544211610377576040517f08c379a000000000000000000000000000000000000000000000000000000000815260040161036e90610ce4565b60405180910390fd5b6000806000600860009054906101000a900473ffffffffffffffffffffffffffffffffffffffff1673ffffffffffffffffffffffffffffffffffffffff1663feaf968c6040518163ffffffff1660e01b815260040160a06040518083038186803b1580156103e457600080fd5b505afa1580156103f8573d6000803e3d6000fd5b505050506040513d601f19601f8201168201806040525081019061041c9190610af4565b909150508093508194508295505050505b60045481111561050557828061044290610f5e565b935050600860009054906101000a900473ffffffffffffffffffffffffffffffffffffffff1673ffffffffffffffffffffffffffffffffffffffff16639a6fc8f5846040518263ffffffff1660e01b81526004016104a09190610d9f565b60a06040518083038186803b1580156104b857600080fd5b505afa1580156104cc573d6000803e3d6000fd5b505050506040513d601f19601f820116820180604052508101906104f09190610af4565b9091505080935081945082955050505061042d565b6003548212610569576000600660016101000a81548160ff0219169083600181111561053457610533610fe6565b5b02179055506001600660026101000a81548160ff0219169083600181111561055f5761055e610fe6565b5b02179055506105c0565b6001600660016101000a81548160ff0219169083600181111561058f5761058e610fe6565b5b02179055506000600660026101000a81548160ff021916908360018111156105ba576105b9610fe6565b5b02179055505b6001600660006101000a81548160ff021916908315150217905550600080600660019054906101000a900460ff166001811115610600576105ff610fe6565b5b600181111561061257610611610fe6565b5b8152602001908152602001600020544761062c9190610e21565b600781905550505050565b60045481565b600660009054906101000a900460ff1615801561065c57506004544211155b61069b576040517f08c379a000000000000000000000000000000000000000000000000000000000815260040161069290610d04565b60405180910390fd5b6000600554346106ab9190610e21565b9050806000808460018111156106c4576106c3610fe6565b5b60018111156106d6576106d5610fe6565b5b815260200190815260200160002060008282546106f39190610dcb565b9250508190555080600160003373ffffffffffffffffffffffffffffffffffffffff1673ffffffffffffffffffffffffffffffffffffffff168152602001908152602001600020600084600181111561074f5761074e610fe6565b5b600181111561076157610760610fe6565b5b8152602001908152602001600020600082825461077e9190610dcb565b925050819055505050565b60006020528060005260406000206000915090505481565b600260009054906101000a900460ff1681565b60075481565b60055481565b60035481565b600660009054906101000a900460ff16610815576040517f08c379a000000000000000000000000000000000000000000000000000000000815260040161080c90610d44565b60405180910390fd5b6000600160003373ffffffffffffffffffffffffffffffffffffffff1673ffffffffffffffffffffffffffffffffffffffff1681526020019081526020016000206000600660019054906101000a900460ff16600181111561087a57610879610fe6565b5b600181111561088c5761088b610fe6565b5b8152602001908152602001600020549050600081116108e0576040517f08c379a00000000000000000000000000000000000000000000000000000000081526004016108d790610d64565b60405180910390fd5b6000600160003373ffffffffffffffffffffffffffffffffffffffff1673ffffffffffffffffffffffffffffffffffffffff1681526020019081526020016000206000600660019054906101000a900460ff16600181111561094557610944610fe6565b5b600181111561095757610956610fe6565b5b8152602001908152602001600020819055503373ffffffffffffffffffffffffffffffffffffffff166108fc600754836109919190610e52565b9081150290604051600060405180830381858888f193505050501580156109bc573d6000803e3d6000fd5b5050565b6001602052816000526040600020602052806000526040600020600091509150505481565b600660009054906101000a900460ff1681565b600660019054906101000a900460ff1681565b600660029054906101000a900460ff1681565b600081359050610a2d8161115b565b92915050565b600081359050610a4281611172565b92915050565b600081519050610a5781611182565b92915050565b600081519050610a6c81611199565b92915050565b600081519050610a81816111b0565b92915050565b60008060408385031215610a9e57610a9d611015565b5b6000610aac85828601610a1e565b9250506020610abd85828601610a33565b9150509250929050565b600060208284031215610add57610adc611015565b5b6000610aeb84828501610a33565b91505092915050565b600080600080600060a08688031215610b1057610b0f611015565b5b6000610b1e88828901610a72565b9550506020610b2f88828901610a48565b9450506040610b4088828901610a5d565b9350506060610b5188828901610a5d565b9250506080610b6288828901610a72565b9150509295509295909350565b610b7881610ebe565b82525050565b610b8781610f3a565b82525050565b610b9681610f4c565b82525050565b610ba581610ef0565b82525050565b6000610bb8602483610dba565b9150610bc38261101a565b604082019050919050565b6000610bdb602683610dba565b9150610be682611069565b604082019050919050565b6000610bfe602083610dba565b9150610c09826110b8565b602082019050919050565b6000610c21602083610dba565b9150610c2c826110e1565b602082019050919050565b6000610c44601a83610dba565b9150610c4f8261110a565b602082019050919050565b610c6381610f1a565b82525050565b610c7281610f24565b82525050565b6000602082019050610c8d6000830184610b6f565b92915050565b6000602082019050610ca86000830184610b7e565b92915050565b6000602082019050610cc36000830184610b8d565b92915050565b6000602082019050610cde6000830184610b9c565b92915050565b60006020820190508181036000830152610cfd81610bab565b9050919050565b60006020820190508181036000830152610d1d81610bce565b9050919050565b60006020820190508181036000830152610d3d81610bf1565b9050919050565b60006020820190508181036000830152610d5d81610c14565b9050919050565b60006020820190508181036000830152610d7d81610c37565b9050919050565b6000602082019050610d996000830184610c5a565b92915050565b6000602082019050610db46000830184610c69565b92915050565b600082825260208201905092915050565b6000610dd682610f1a565b9150610de183610f1a565b9250827fffffffffffffffffffffffffffffffffffffffffffffffffffffffffffffffff03821115610e1657610e15610f88565b5b828201905092915050565b6000610e2c82610f1a565b9150610e3783610f1a565b925082610e4757610e46610fb7565b5b828204905092915050565b6000610e5d82610f1a565b9150610e6883610f1a565b9250817fffffffffffffffffffffffffffffffffffffffffffffffffffffffffffffffff0483118215151615610ea157610ea0610f88565b5b828202905092915050565b6000610eb782610efa565b9050919050565b60008115159050919050565b6000819050610ed882611133565b919050565b6000819050610eeb82611147565b919050565b6000819050919050565b600073ffffffffffffffffffffffffffffffffffffffff82169050919050565b6000819050919050565b600069ffffffffffffffffffff82169050919050565b6000610f4582610eca565b9050919050565b6000610f5782610edd565b9050919050565b6000610f6982610f24565b91506000821415610f7d57610f7c610f88565b5b600182039050919050565b7f4e487b7100000000000000000000000000000000000000000000000000000000600052601160045260246000fd5b7f4e487b7100000000000000000000000000000000000000000000000000000000600052601260045260246000fd5b7f4e487b7100000000000000000000000000000000000000000000000000000000600052602160045260246000fd5b600080fd5b7f43616e6e6f74207265736f6c7665206d61726b6574206265666f726520656e6460008201527f54696d6500000000000000000000000000000000000000000000000000000000602082015250565b7f43616e6e6f742062757920736861726573206166746572206d61726b6574206560008201527f6e6454696d650000000000000000000000000000000000000000000000000000602082015250565b7f4d61726b65742068617320616c7265616479206265656e207265736f6c766564600082015250565b7f4d61726b657420686173206e6f74206265656e207265736f6c76656420796574600082015250565b7f596f752068617665206e6f2077696e6e696e6720736861726573000000000000600082015250565b6004811061114457611143610fe6565b5b50565b6002811061115857611157610fe6565b5b50565b61116481610eac565b811461116f57600080fd5b50565b6002811061117f57600080fd5b50565b61118b81610ef0565b811461119657600080fd5b50565b6111a281610f1a565b81146111ad57600080fd5b50565b6111b981610f24565b81146111c457600080fd5b5056fea2646970667358221220daef848f6534fd6679dff563efa0909b79c82c9c31b06e89596da7b7a1b430fe64736f6c63430008070033",
  "linkReferences": {},
  "deployedLinkReferences": {}
}