{
  "_format": "hh-sol-artifact-1",
  "contractName": "PredictionMarket",
  "sourceName": "contracts/PredictionMarket.sol",
  "abi": [
    {
      "inputs": [
        {
          "internalType": "enum PredictionMarket.Market",
          "name": "_market",
          "type": "uint8"
        },
        {
          "internalType": "int256",
          "name": "_predictedPrice",
          "type": "int256"
        },
        {
          "internalType": "uint256",
          "name": "_endTime",
          "type": "uint256"
        }
      ],
      "stateMutability": "nonpayable",
      "type": "constructor"
    },
    {
      "anonymous": false,
      "inputs": [
        {
          "indexed": true,
          "internalType": "address",
          "name": "_from",
          "type": "address"
        },
        {
          "indexed": false,
          "internalType": "uint256",
          "name": "_numberShares",
          "type": "uint256"
        },
        {
          "indexed": false,
          "internalType": "enum PredictionMarket.Vote",
          "name": "_vote",
          "type": "uint8"
        },
        {
          "indexed": false,
          "internalType": "uint256",
          "name": "_totalPrice",
          "type": "uint256"
        }
      ],
      "name": "Buy",
      "type": "event"
    },
    {
      "anonymous": false,
      "inputs": [
        {
          "indexed": true,
          "internalType": "address",
          "name": "_to",
          "type": "address"
        },
        {
          "indexed": false,
          "internalType": "uint256",
          "name": "_numberShares",
          "type": "uint256"
        },
        {
          "indexed": false,
          "internalType": "enum PredictionMarket.Vote",
          "name": "_vote",
          "type": "uint8"
        },
        {
          "indexed": false,
          "internalType": "uint256",
          "name": "_totalPrice",
          "type": "uint256"
        }
      ],
      "name": "Withdraw",
      "type": "event"
    },
    {
      "inputs": [
        {
          "internalType": "enum PredictionMarket.Vote",
          "name": "_vote",
          "type": "uint8"
        }
      ],
      "name": "buyShares",
      "outputs": [],
      "stateMutability": "payable",
      "type": "function"
    },
    {
      "inputs": [],
      "name": "endTime",
      "outputs": [
        {
          "internalType": "uint256",
          "name": "",
          "type": "uint256"
        }
      ],
      "stateMutability": "view",
      "type": "function"
    },
    {
      "inputs": [],
      "name": "isResolved",
      "outputs": [
        {
          "internalType": "bool",
          "name": "",
          "type": "bool"
        }
      ],
      "stateMutability": "view",
      "type": "function"
    },
    {
      "inputs": [],
      "name": "loser",
      "outputs": [
        {
          "internalType": "enum PredictionMarket.Vote",
          "name": "",
          "type": "uint8"
        }
      ],
      "stateMutability": "view",
      "type": "function"
    },
    {
      "inputs": [],
      "name": "market",
      "outputs": [
        {
          "internalType": "enum PredictionMarket.Market",
          "name": "",
          "type": "uint8"
        }
      ],
      "stateMutability": "view",
      "type": "function"
    },
    {
      "inputs": [
        {
          "internalType": "enum PredictionMarket.Vote",
          "name": "",
          "type": "uint8"
        }
      ],
      "name": "numberShares",
      "outputs": [
        {
          "internalType": "uint256",
          "name": "",
          "type": "uint256"
        }
      ],
      "stateMutability": "view",
      "type": "function"
    },
    {
      "inputs": [],
      "name": "predictedPrice",
      "outputs": [
        {
          "internalType": "int256",
          "name": "",
          "type": "int256"
        }
      ],
      "stateMutability": "view",
      "type": "function"
    },
    {
      "inputs": [],
      "name": "resolveMarket",
      "outputs": [],
      "stateMutability": "nonpayable",
      "type": "function"
    },
    {
      "inputs": [
        {
          "internalType": "address",
          "name": "",
          "type": "address"
        },
        {
          "internalType": "enum PredictionMarket.Vote",
          "name": "",
          "type": "uint8"
        }
      ],
      "name": "sharesPerPerson",
      "outputs": [
        {
          "internalType": "uint256",
          "name": "",
          "type": "uint256"
        }
      ],
      "stateMutability": "view",
      "type": "function"
    },
    {
      "inputs": [],
      "name": "winner",
      "outputs": [
        {
          "internalType": "enum PredictionMarket.Vote",
          "name": "",
          "type": "uint8"
        }
      ],
      "stateMutability": "view",
      "type": "function"
    },
    {
      "inputs": [],
      "name": "winningPerShare",
      "outputs": [
        {
          "internalType": "uint256",
          "name": "",
          "type": "uint256"
        }
      ],
      "stateMutability": "view",
      "type": "function"
    },
    {
      "inputs": [],
      "name": "withdrawWinnings",
      "outputs": [],
      "stateMutability": "nonpayable",
      "type": "function"
    },
    {
      "inputs": [],
      "name": "yesPrice",
      "outputs": [
        {
          "internalType": "uint256",
          "name": "",
          "type": "uint256"
        }
      ],
      "stateMutability": "view",
      "type": "function"
    }
  ],
  "bytecode": "0x60806040526000600660006101000a81548160ff0219169083151502179055503480156200002c57600080fd5b506040516200182738038062001827833981810160405281019062000052919062000293565b82600260006101000a81548160ff021916908360038111156200007a576200007962000303565b5b021790555081600381905550806004819055506200009e83620000b560201b60201c565b662386f26fc10000600581905550505050620003ab565b60006040518060800160405280735498bb86bc934c8d34fda08e81d444153d0d06ad73ffffffffffffffffffffffffffffffffffffffff1673ffffffffffffffffffffffffffffffffffffffff1681526020017331cf013a08c6ac228c94551d535d5bafe19c602a73ffffffffffffffffffffffffffffffffffffffff1673ffffffffffffffffffffffffffffffffffffffff1681526020017386d67c3d38d2bcee722e601025c25a575021c6ea73ffffffffffffffffffffffffffffffffffffffff1673ffffffffffffffffffffffffffffffffffffffff1681526020017334c4c526902d88a3aa98db8a9b802603eb1e347073ffffffffffffffffffffffffffffffffffffffff1673ffffffffffffffffffffffffffffffffffffffff16815250905080826003811115620001f157620001f062000303565b5b6004811062000205576200020462000332565b5b6020020151600860006101000a81548173ffffffffffffffffffffffffffffffffffffffff021916908373ffffffffffffffffffffffffffffffffffffffff1602179055505050565b6000815190506200025f8162000366565b92915050565b600081519050620002768162000377565b92915050565b6000815190506200028d8162000391565b92915050565b600080600060608486031215620002af57620002ae62000361565b5b6000620002bf868287016200024e565b9350506020620002d28682870162000265565b9250506040620002e5868287016200027c565b9150509250925092565b6000819050919050565b6000819050919050565b7f4e487b7100000000000000000000000000000000000000000000000000000000600052602160045260246000fd5b7f4e487b7100000000000000000000000000000000000000000000000000000000600052603260045260246000fd5b600080fd5b600481106200037457600080fd5b50565b6200038281620002ef565b81146200038e57600080fd5b50565b6200039c81620002f9565b8114620003a857600080fd5b50565b61146c80620003bb6000396000f3fe6080604052600436106100c25760003560e01c8063979023241161007f578063d064a8dc11610059578063d064a8dc14610225578063dbb3f53714610262578063dfbf53ae1461028d578063e82898b3146102b8576100c2565b806397902324146101b8578063a27afd67146101e3578063cc42e83a1461020e576100c2565b80632b9b55b3146100c75780633197cbb6146100de57806334f5e9f91461010957806350dfdbfb1461012557806374f72fab1461015057806380f556051461018d575b600080fd5b3480156100d357600080fd5b506100dc6102e3565b005b3480156100ea57600080fd5b506100f3610637565b6040516101009190610f88565b60405180910390f35b610123600480360381019061011e9190610ccb565b61063d565b005b34801561013157600080fd5b5061013a61082f565b6040516101479190610f88565b60405180910390f35b34801561015c57600080fd5b5061017760048036038101906101729190610ccb565b610835565b6040516101849190610f88565b60405180910390f35b34801561019957600080fd5b506101a261084d565b6040516101af9190610e97565b60405180910390f35b3480156101c457600080fd5b506101cd610860565b6040516101da9190610f88565b60405180910390f35b3480156101ef57600080fd5b506101f8610866565b6040516102059190610ecd565b60405180910390f35b34801561021a57600080fd5b5061022361086c565b005b34801561023157600080fd5b5061024c60048036038101906102479190610c8b565b610acd565b6040516102599190610f88565b60405180910390f35b34801561026e57600080fd5b50610277610af2565b6040516102849190610e7c565b60405180910390f35b34801561029957600080fd5b506102a2610b05565b6040516102af9190610eb2565b60405180910390f35b3480156102c457600080fd5b506102cd610b18565b6040516102da9190610eb2565b60405180910390f35b600660009054906101000a900460ff1615610333576040517f08c379a000000000000000000000000000000000000000000000000000000000815260040161032a90610f28565b60405180910390fd5b6004544211610377576040517f08c379a000000000000000000000000000000000000000000000000000000000815260040161036e90610ee8565b60405180910390fd5b6000806000600860009054906101000a900473ffffffffffffffffffffffffffffffffffffffff1673ffffffffffffffffffffffffffffffffffffffff1663feaf968c6040518163ffffffff1660e01b815260040160a06040518083038186803b1580156103e457600080fd5b505afa1580156103f8573d6000803e3d6000fd5b505050506040513d601f19601f8201168201806040525081019061041c9190610cf8565b909150508093508194508295505050505b600454811115610505578280610442906111cd565b935050600860009054906101000a900473ffffffffffffffffffffffffffffffffffffffff1673ffffffffffffffffffffffffffffffffffffffff16639a6fc8f5846040518263ffffffff1660e01b81526004016104a09190610fda565b60a06040518083038186803b1580156104b857600080fd5b505afa1580156104cc573d6000803e3d6000fd5b505050506040513d601f19601f820116820180604052508101906104f09190610cf8565b9091505080935081945082955050505061042d565b6003548212610569576000600660016101000a81548160ff0219169083600181111561053457610533611255565b5b02179055506001600660026101000a81548160ff0219169083600181111561055f5761055e611255565b5b02179055506105c0565b6001600660016101000a81548160ff0219169083600181111561058f5761058e611255565b5b02179055506000600660026101000a81548160ff021916908360018111156105ba576105b9611255565b5b02179055505b6001600660006101000a81548160ff021916908315150217905550600080600660019054906101000a900460ff166001811115610600576105ff611255565b5b600181111561061257610611611255565b5b8152602001908152602001600020544761062c919061105c565b600781905550505050565b60045481565b600660009054906101000a900460ff1615801561065c57506004544211155b61069b576040517f08c379a000000000000000000000000000000000000000000000000000000000815260040161069290610f08565b60405180910390fd5b60008060018111156106b0576106af611255565b5b8260018111156106c3576106c2611255565b5b146106e25760055466470de4df8200006106dd91906110e7565b6106e6565b6005545b9050600081346106f6919061105c565b90508060008085600181111561070f5761070e611255565b5b600181111561072157610720611255565b5b8152602001908152602001600020600082825461073e9190611006565b9250508190555080600160003373ffffffffffffffffffffffffffffffffffffffff1673ffffffffffffffffffffffffffffffffffffffff168152602001908152602001600020600085600181111561079a57610799611255565b5b60018111156107ac576107ab611255565b5b815260200190815260200160002060008282546107c99190611006565b925050819055503373ffffffffffffffffffffffffffffffffffffffff167f4d4ae3655da85b97eeee27a41d5a8d3213008a976617e79db33887645c13781782853460405161081a93929190610fa3565b60405180910390a261082a610b2b565b505050565b60055481565b60006020528060005260406000206000915090505481565b600260009054906101000a900460ff1681565b60075481565b60035481565b600660009054906101000a900460ff166108bb576040517f08c379a00000000000000000000000000000000000000000000000000000000081526004016108b290610f48565b60405180910390fd5b6000600160003373ffffffffffffffffffffffffffffffffffffffff1673ffffffffffffffffffffffffffffffffffffffff1681526020019081526020016000206000600660019054906101000a900460ff1660018111156109205761091f611255565b5b600181111561093257610931611255565b5b815260200190815260200160002054905060008111610986576040517f08c379a000000000000000000000000000000000000000000000000000000000815260040161097d90610f68565b60405180910390fd5b6000600160003373ffffffffffffffffffffffffffffffffffffffff1673ffffffffffffffffffffffffffffffffffffffff1681526020019081526020016000206000600660019054906101000a900460ff1660018111156109eb576109ea611255565b5b60018111156109fd576109fc611255565b5b815260200190815260200160002081905550600060075482610a1f919061108d565b90503373ffffffffffffffffffffffffffffffffffffffff166108fc829081150290604051600060405180830381858888f19350505050158015610a67573d6000803e3d6000fd5b503373ffffffffffffffffffffffffffffffffffffffff167fc6c74a68f89b63353b582f75a2009daefef14ef389fbf7e30edb6141f414f02883600660019054906101000a900460ff1684604051610ac193929190610fa3565b60405180910390a25050565b6001602052816000526040600020602052806000526040600020600091509150505481565b600660009054906101000a900460ff1681565b600660019054906101000a900460ff1681565b600660029054906101000a900460ff1681565b6000806000806001811115610b4357610b42611255565b5b6001811115610b5557610b54611255565b5b815260200190815260200160002054600080600180811115610b7a57610b79611255565b5b6001811115610b8c57610b8b611255565b5b815260200190815260200160002054610ba59190611006565b90506000816064600080806001811115610bc257610bc1611255565b5b6001811115610bd457610bd3611255565b5b815260200190815260200160002054610bed919061108d565b610bf7919061105c565b9050606466470de4df82000082610c0e919061108d565b610c18919061105c565b6005819055505050565b600081359050610c31816113ca565b92915050565b600081359050610c46816113e1565b92915050565b600081519050610c5b816113f1565b92915050565b600081519050610c7081611408565b92915050565b600081519050610c858161141f565b92915050565b60008060408385031215610ca257610ca1611284565b5b6000610cb085828601610c22565b9250506020610cc185828601610c37565b9150509250929050565b600060208284031215610ce157610ce0611284565b5b6000610cef84828501610c37565b91505092915050565b600080600080600060a08688031215610d1457610d13611284565b5b6000610d2288828901610c76565b9550506020610d3388828901610c4c565b9450506040610d4488828901610c61565b9350506060610d5588828901610c61565b9250506080610d6688828901610c76565b9150509295509295909350565b610d7c8161112d565b82525050565b610d8b816111a9565b82525050565b610d9a816111bb565b82525050565b610da98161115f565b82525050565b6000610dbc602483610ff5565b9150610dc782611289565b604082019050919050565b6000610ddf602683610ff5565b9150610dea826112d8565b604082019050919050565b6000610e02602083610ff5565b9150610e0d82611327565b602082019050919050565b6000610e25602083610ff5565b9150610e3082611350565b602082019050919050565b6000610e48601a83610ff5565b9150610e5382611379565b602082019050919050565b610e6781611189565b82525050565b610e7681611193565b82525050565b6000602082019050610e916000830184610d73565b92915050565b6000602082019050610eac6000830184610d82565b92915050565b6000602082019050610ec76000830184610d91565b92915050565b6000602082019050610ee26000830184610da0565b92915050565b60006020820190508181036000830152610f0181610daf565b9050919050565b60006020820190508181036000830152610f2181610dd2565b9050919050565b60006020820190508181036000830152610f4181610df5565b9050919050565b60006020820190508181036000830152610f6181610e18565b9050919050565b60006020820190508181036000830152610f8181610e3b565b9050919050565b6000602082019050610f9d6000830184610e5e565b92915050565b6000606082019050610fb86000830186610e5e565b610fc56020830185610d91565b610fd26040830184610e5e565b949350505050565b6000602082019050610fef6000830184610e6d565b92915050565b600082825260208201905092915050565b600061101182611189565b915061101c83611189565b9250827fffffffffffffffffffffffffffffffffffffffffffffffffffffffffffffffff03821115611051576110506111f7565b5b828201905092915050565b600061106782611189565b915061107283611189565b92508261108257611081611226565b5b828204905092915050565b600061109882611189565b91506110a383611189565b9250817fffffffffffffffffffffffffffffffffffffffffffffffffffffffffffffffff04831182151516156110dc576110db6111f7565b5b828202905092915050565b60006110f282611189565b91506110fd83611189565b9250828210156111105761110f6111f7565b5b828203905092915050565b600061112682611169565b9050919050565b60008115159050919050565b6000819050611147826113a2565b919050565b600081905061115a826113b6565b919050565b6000819050919050565b600073ffffffffffffffffffffffffffffffffffffffff82169050919050565b6000819050919050565b600069ffffffffffffffffffff82169050919050565b60006111b482611139565b9050919050565b60006111c68261114c565b9050919050565b60006111d882611193565b915060008214156111ec576111eb6111f7565b5b600182039050919050565b7f4e487b7100000000000000000000000000000000000000000000000000000000600052601160045260246000fd5b7f4e487b7100000000000000000000000000000000000000000000000000000000600052601260045260246000fd5b7f4e487b7100000000000000000000000000000000000000000000000000000000600052602160045260246000fd5b600080fd5b7f43616e6e6f74207265736f6c7665206d61726b6574206265666f726520656e6460008201527f54696d6500000000000000000000000000000000000000000000000000000000602082015250565b7f43616e6e6f742062757920736861726573206166746572206d61726b6574206560008201527f6e6454696d650000000000000000000000000000000000000000000000000000602082015250565b7f4d61726b65742068617320616c7265616479206265656e207265736f6c766564600082015250565b7f4d61726b657420686173206e6f74206265656e207265736f6c76656420796574600082015250565b7f596f752068617665206e6f2077696e6e696e6720736861726573000000000000600082015250565b600481106113b3576113b2611255565b5b50565b600281106113c7576113c6611255565b5b50565b6113d38161111b565b81146113de57600080fd5b50565b600281106113ee57600080fd5b50565b6113fa8161115f565b811461140557600080fd5b50565b61141181611189565b811461141c57600080fd5b50565b61142881611193565b811461143357600080fd5b5056fea2646970667358221220ae79e6c54df20d8889fa56b21832b4f3221c5c24f7d5203780c396806a99536064736f6c63430008070033",
  "linkReferences": {},
  "deployedLinkReferences": {}
}