{
  "_format": "hh-sol-artifact-1",
  "contractName": "PredictionMarket",
  "sourceName": "contracts/PredictionMarket.sol",
  "abi": [
    {
      "inputs": [
        {
          "internalType": "enum PredictionMarket.Market",
          "name": "_market",
          "type": "uint8"
        },
        {
          "internalType": "int256",
          "name": "_predictedPrice",
          "type": "int256"
        },
        {
          "internalType": "uint256",
          "name": "_endTime",
          "type": "uint256"
        }
      ],
      "stateMutability": "nonpayable",
      "type": "constructor"
    },
    {
      "anonymous": false,
      "inputs": [
        {
          "indexed": true,
          "internalType": "address",
          "name": "_from",
          "type": "address"
        },
        {
          "indexed": false,
          "internalType": "uint256",
          "name": "_numberShares",
          "type": "uint256"
        },
        {
          "indexed": false,
          "internalType": "enum PredictionMarket.Vote",
          "name": "_vote",
          "type": "uint8"
        },
        {
          "indexed": false,
          "internalType": "uint256",
          "name": "_totalPrice",
          "type": "uint256"
        }
      ],
      "name": "Buy",
      "type": "event"
    },
    {
      "anonymous": false,
      "inputs": [
        {
          "indexed": true,
          "internalType": "address",
          "name": "_to",
          "type": "address"
        },
        {
          "indexed": false,
          "internalType": "uint256",
          "name": "_numberShares",
          "type": "uint256"
        },
        {
          "indexed": false,
          "internalType": "enum PredictionMarket.Vote",
          "name": "_vote",
          "type": "uint8"
        },
        {
          "indexed": false,
          "internalType": "uint256",
          "name": "_totalPrice",
          "type": "uint256"
        }
      ],
      "name": "Withdraw",
      "type": "event"
    },
    {
      "inputs": [
        {
          "internalType": "enum PredictionMarket.Vote",
          "name": "_vote",
          "type": "uint8"
        }
      ],
      "name": "buyShares",
      "outputs": [],
      "stateMutability": "payable",
      "type": "function"
    },
    {
      "inputs": [],
      "name": "marketInfo",
      "outputs": [
        {
          "internalType": "uint256",
          "name": "numberYesShares",
          "type": "uint256"
        },
        {
          "internalType": "uint256",
          "name": "numberNoShares",
          "type": "uint256"
        },
        {
          "internalType": "enum PredictionMarket.Market",
          "name": "market",
          "type": "uint8"
        },
        {
          "internalType": "int256",
          "name": "predictedPrice",
          "type": "int256"
        },
        {
          "internalType": "uint256",
          "name": "endTime",
          "type": "uint256"
        },
        {
          "internalType": "uint256",
          "name": "yesPrice",
          "type": "uint256"
        },
        {
          "internalType": "bool",
          "name": "isResolved",
          "type": "bool"
        }
      ],
      "stateMutability": "view",
      "type": "function"
    },
    {
      "inputs": [],
      "name": "resolveMarket",
      "outputs": [],
      "stateMutability": "nonpayable",
      "type": "function"
    },
    {
      "inputs": [
        {
          "internalType": "address",
          "name": "",
          "type": "address"
        },
        {
          "internalType": "enum PredictionMarket.Vote",
          "name": "",
          "type": "uint8"
        }
      ],
      "name": "sharesPerPerson",
      "outputs": [
        {
          "internalType": "uint256",
          "name": "",
          "type": "uint256"
        }
      ],
      "stateMutability": "view",
      "type": "function"
    },
    {
      "inputs": [],
      "name": "winner",
      "outputs": [
        {
          "internalType": "enum PredictionMarket.Vote",
          "name": "",
          "type": "uint8"
        }
      ],
      "stateMutability": "view",
      "type": "function"
    },
    {
      "inputs": [],
      "name": "winningPerShare",
      "outputs": [
        {
          "internalType": "uint256",
          "name": "",
          "type": "uint256"
        }
      ],
      "stateMutability": "view",
      "type": "function"
    },
    {
      "inputs": [],
      "name": "withdrawWinnings",
      "outputs": [],
      "stateMutability": "nonpayable",
      "type": "function"
    }
  ],
  "bytecode": "0x60806040523480156200001157600080fd5b50604051620016ec380380620016ec833981810160405281019062000037919062000283565b82600460020160006101000a81548160ff02191690836003811115620000625762000061620002f3565b5b0217905550816004600301819055508060048001819055506200008b83620000a560201b60201c565b662386f26fc100006004600501819055505050506200039b565b60006040518060800160405280735498bb86bc934c8d34fda08e81d444153d0d06ad73ffffffffffffffffffffffffffffffffffffffff1673ffffffffffffffffffffffffffffffffffffffff1681526020017331cf013a08c6ac228c94551d535d5bafe19c602a73ffffffffffffffffffffffffffffffffffffffff1673ffffffffffffffffffffffffffffffffffffffff1681526020017386d67c3d38d2bcee722e601025c25a575021c6ea73ffffffffffffffffffffffffffffffffffffffff1673ffffffffffffffffffffffffffffffffffffffff1681526020017334c4c526902d88a3aa98db8a9b802603eb1e347073ffffffffffffffffffffffffffffffffffffffff1673ffffffffffffffffffffffffffffffffffffffff16815250905080826003811115620001e157620001e0620002f3565b5b60048110620001f557620001f462000322565b5b6020020151600360006101000a81548173ffffffffffffffffffffffffffffffffffffffff021916908373ffffffffffffffffffffffffffffffffffffffff1602179055505050565b6000815190506200024f8162000356565b92915050565b600081519050620002668162000367565b92915050565b6000815190506200027d8162000381565b92915050565b6000806000606084860312156200029f576200029e62000351565b5b6000620002af868287016200023e565b9350506020620002c28682870162000255565b9250506040620002d5868287016200026c565b9150509250925092565b6000819050919050565b6000819050919050565b7f4e487b7100000000000000000000000000000000000000000000000000000000600052602160045260246000fd5b7f4e487b7100000000000000000000000000000000000000000000000000000000600052603260045260246000fd5b600080fd5b600481106200036457600080fd5b50565b6200037281620002df565b81146200037e57600080fd5b50565b6200038c81620002e9565b81146200039857600080fd5b50565b61134180620003ab6000396000f3fe6080604052600436106100705760003560e01c8063979023241161004e57806397902324146100d9578063cc42e83a14610104578063d064a8dc1461011b578063dfbf53ae1461015857610070565b8063031bee00146100755780632b9b55b3146100a657806334f5e9f9146100bd575b600080fd5b34801561008157600080fd5b5061008a610183565b60405161009d9796959493929190610e40565b60405180910390f35b3480156100b257600080fd5b506100bb6101cd565b005b6100d760048036038101906100d29190610b82565b6104b3565b005b3480156100e557600080fd5b506100ee6106cd565b6040516100fb9190610dee565b60405180910390f35b34801561011057600080fd5b506101196106d3565b005b34801561012757600080fd5b50610142600480360381019061013d9190610b42565b610935565b60405161014f9190610dee565b60405180910390f35b34801561016457600080fd5b5061016d61095a565b60405161017a9190610d33565b60405180910390f35b60048060000154908060010154908060020160009054906101000a900460ff16908060030154908060040154908060050154908060060160009054906101000a900460ff16905087565b600460060160009054906101000a900460ff1615610220576040517f08c379a000000000000000000000000000000000000000000000000000000000815260040161021790610d8e565b60405180910390fd5b60048001544211610266576040517f08c379a000000000000000000000000000000000000000000000000000000000815260040161025d90610d4e565b60405180910390fd5b6000806000600360009054906101000a900473ffffffffffffffffffffffffffffffffffffffff1673ffffffffffffffffffffffffffffffffffffffff1663feaf968c6040518163ffffffff1660e01b815260040160a06040518083038186803b1580156102d357600080fd5b505afa1580156102e7573d6000803e3d6000fd5b505050506040513d601f19601f8201168201806040525081019061030b9190610baf565b909150508093508194508295505050505b60048001548111156103f6578280610333906110a2565b935050600360009054906101000a900473ffffffffffffffffffffffffffffffffffffffff1673ffffffffffffffffffffffffffffffffffffffff16639a6fc8f5846040518263ffffffff1660e01b81526004016103919190610eaf565b60a06040518083038186803b1580156103a957600080fd5b505afa1580156103bd573d6000803e3d6000fd5b505050506040513d601f19601f820116820180604052508101906103e19190610baf565b9091505080935081945082955050505061031c565b6000600460030154831261043c576000600160006101000a81548160ff0219169083600181111561042a5761042961112a565b5b0217905550600460000154905061046f565b60018060006101000a81548160ff021916908360018111156104615761046061112a565b5b021790555060046001015490505b6001600460060160006101000a81548160ff021916908315150217905550600081141561049b57600190505b80476104a79190610f31565b60028190555050505050565b600460060160009054906101000a900460ff161580156104d7575060048001544211155b610516576040517f08c379a000000000000000000000000000000000000000000000000000000000815260040161050d90610d6e565b60405180910390fd5b600080600181111561052b5761052a61112a565b5b82600181111561053e5761053d61112a565b5b146105605760046005015466470de4df82000061055b9190610fbc565b610567565b6004600501545b9050600081346105779190610f31565b90506000600181111561058d5761058c61112a565b5b8360018111156105a05761059f61112a565b5b14156105c75780600460000160008282546105bb9190610edb565b925050819055506105e4565b80600460010160008282546105dc9190610edb565b925050819055505b806000803373ffffffffffffffffffffffffffffffffffffffff1673ffffffffffffffffffffffffffffffffffffffff16815260200190815260200160002060008560018111156106385761063761112a565b5b600181111561064a5761064961112a565b5b815260200190815260200160002060008282546106679190610edb565b925050819055503373ffffffffffffffffffffffffffffffffffffffff167f4d4ae3655da85b97eeee27a41d5a8d3213008a976617e79db33887645c1378178285346040516106b893929190610e09565b60405180910390a26106c861096d565b505050565b60025481565b600460060160009054906101000a900460ff16610725576040517f08c379a000000000000000000000000000000000000000000000000000000000815260040161071c90610dae565b60405180910390fd5b60008060003373ffffffffffffffffffffffffffffffffffffffff1673ffffffffffffffffffffffffffffffffffffffff1681526020019081526020016000206000600160009054906101000a900460ff1660018111156107895761078861112a565b5b600181111561079b5761079a61112a565b5b8152602001908152602001600020549050600081116107ef576040517f08c379a00000000000000000000000000000000000000000000000000000000081526004016107e690610dce565b60405180910390fd5b60008060003373ffffffffffffffffffffffffffffffffffffffff1673ffffffffffffffffffffffffffffffffffffffff1681526020019081526020016000206000600160009054906101000a900460ff1660018111156108535761085261112a565b5b60018111156108655761086461112a565b5b8152602001908152602001600020819055506000600254826108879190610f62565b90503373ffffffffffffffffffffffffffffffffffffffff166108fc829081150290604051600060405180830381858888f193505050501580156108cf573d6000803e3d6000fd5b503373ffffffffffffffffffffffffffffffffffffffff167fc6c74a68f89b63353b582f75a2009daefef14ef389fbf7e30edb6141f414f02883600160009054906101000a900460ff168460405161092993929190610e09565b60405180910390a25050565b6000602052816000526040600020602052806000526040600020600091509150505481565b600160009054906101000a900460ff1681565b60006004600001546004600101546109859190610edb565b9050600060649050600082826004600001546109a19190610f62565b6109ab9190610f31565b905060008114156109bb57600190505b6103e88310610a015760648114156109d257606390505b8166470de4df820000826109e69190610f62565b6109f09190610f31565b600460050181905550505050610ad7565b6000600a84610a109190610f31565b90506000811415610a2057600190505b600060028483610a309190610f62565b610a3a9190610f31565b905060008284610a4a9190610f62565b90506000856032610a5b9190610f62565b905082821115610a83578282610a719190610fbc565b81610a7c9190610edb565b9450610a9d565b8183610a8f9190610fbc565b81610a9a9190610fbc565b94505b8586610aa99190610f62565b66470de4df82000086610abc9190610f62565b610ac69190610f31565b600460050181905550505050505050505b565b600081359050610ae88161129f565b92915050565b600081359050610afd816112b6565b92915050565b600081519050610b12816112c6565b92915050565b600081519050610b27816112dd565b92915050565b600081519050610b3c816112f4565b92915050565b60008060408385031215610b5957610b58611159565b5b6000610b6785828601610ad9565b9250506020610b7885828601610aee565b9150509250929050565b600060208284031215610b9857610b97611159565b5b6000610ba684828501610aee565b91505092915050565b600080600080600060a08688031215610bcb57610bca611159565b5b6000610bd988828901610b2d565b9550506020610bea88828901610b03565b9450506040610bfb88828901610b18565b9350506060610c0c88828901610b18565b9250506080610c1d88828901610b2d565b9150509295509295909350565b610c3381611002565b82525050565b610c428161107e565b82525050565b610c5181611090565b82525050565b610c6081611034565b82525050565b6000610c73602483610eca565b9150610c7e8261115e565b604082019050919050565b6000610c96602683610eca565b9150610ca1826111ad565b604082019050919050565b6000610cb9602083610eca565b9150610cc4826111fc565b602082019050919050565b6000610cdc602083610eca565b9150610ce782611225565b602082019050919050565b6000610cff601a83610eca565b9150610d0a8261124e565b602082019050919050565b610d1e8161105e565b82525050565b610d2d81611068565b82525050565b6000602082019050610d486000830184610c48565b92915050565b60006020820190508181036000830152610d6781610c66565b9050919050565b60006020820190508181036000830152610d8781610c89565b9050919050565b60006020820190508181036000830152610da781610cac565b9050919050565b60006020820190508181036000830152610dc781610ccf565b9050919050565b60006020820190508181036000830152610de781610cf2565b9050919050565b6000602082019050610e036000830184610d15565b92915050565b6000606082019050610e1e6000830186610d15565b610e2b6020830185610c48565b610e386040830184610d15565b949350505050565b600060e082019050610e55600083018a610d15565b610e626020830189610d15565b610e6f6040830188610c39565b610e7c6060830187610c57565b610e896080830186610d15565b610e9660a0830185610d15565b610ea360c0830184610c2a565b98975050505050505050565b6000602082019050610ec46000830184610d24565b92915050565b600082825260208201905092915050565b6000610ee68261105e565b9150610ef18361105e565b9250827fffffffffffffffffffffffffffffffffffffffffffffffffffffffffffffffff03821115610f2657610f256110cc565b5b828201905092915050565b6000610f3c8261105e565b9150610f478361105e565b925082610f5757610f566110fb565b5b828204905092915050565b6000610f6d8261105e565b9150610f788361105e565b9250817fffffffffffffffffffffffffffffffffffffffffffffffffffffffffffffffff0483118215151615610fb157610fb06110cc565b5b828202905092915050565b6000610fc78261105e565b9150610fd28361105e565b925082821015610fe557610fe46110cc565b5b828203905092915050565b6000610ffb8261103e565b9050919050565b60008115159050919050565b600081905061101c82611277565b919050565b600081905061102f8261128b565b919050565b6000819050919050565b600073ffffffffffffffffffffffffffffffffffffffff82169050919050565b6000819050919050565b600069ffffffffffffffffffff82169050919050565b60006110898261100e565b9050919050565b600061109b82611021565b9050919050565b60006110ad82611068565b915060008214156110c1576110c06110cc565b5b600182039050919050565b7f4e487b7100000000000000000000000000000000000000000000000000000000600052601160045260246000fd5b7f4e487b7100000000000000000000000000000000000000000000000000000000600052601260045260246000fd5b7f4e487b7100000000000000000000000000000000000000000000000000000000600052602160045260246000fd5b600080fd5b7f43616e6e6f74207265736f6c7665206d61726b6574206265666f726520656e6460008201527f54696d6500000000000000000000000000000000000000000000000000000000602082015250565b7f43616e6e6f742062757920736861726573206166746572206d61726b6574206560008201527f6e6454696d650000000000000000000000000000000000000000000000000000602082015250565b7f4d61726b65742068617320616c7265616479206265656e207265736f6c766564600082015250565b7f4d61726b657420686173206e6f74206265656e207265736f6c76656420796574600082015250565b7f596f752068617665206e6f2077696e6e696e6720736861726573000000000000600082015250565b600481106112885761128761112a565b5b50565b6002811061129c5761129b61112a565b5b50565b6112a881610ff0565b81146112b357600080fd5b50565b600281106112c357600080fd5b50565b6112cf81611034565b81146112da57600080fd5b50565b6112e68161105e565b81146112f157600080fd5b50565b6112fd81611068565b811461130857600080fd5b5056fea2646970667358221220dfc1da7deeb9673a6fca5db2b26688ff81d74690f73de4ccec2cbfe99f35da0164736f6c63430008070033",
  "linkReferences": {},
  "deployedLinkReferences": {}
}