{
  "_format": "hh-sol-artifact-1",
  "contractName": "PredictionMarket",
  "sourceName": "contracts/PredictionMarket.sol",
  "abi": [
    {
      "inputs": [
        {
          "internalType": "enum PredictionMarket.Market",
          "name": "_market",
          "type": "uint8"
        },
        {
          "internalType": "int256",
          "name": "_predictedPrice",
          "type": "int256"
        },
        {
          "internalType": "uint256",
          "name": "_endTime",
          "type": "uint256"
        }
      ],
      "stateMutability": "nonpayable",
      "type": "constructor"
    },
    {
      "anonymous": false,
      "inputs": [
        {
          "indexed": true,
          "internalType": "address",
          "name": "_from",
          "type": "address"
        },
        {
          "indexed": false,
          "internalType": "uint256",
          "name": "_numberShares",
          "type": "uint256"
        },
        {
          "indexed": false,
          "internalType": "enum PredictionMarket.Vote",
          "name": "_vote",
          "type": "uint8"
        },
        {
          "indexed": false,
          "internalType": "uint256",
          "name": "_totalPrice",
          "type": "uint256"
        }
      ],
      "name": "Buy",
      "type": "event"
    },
    {
      "anonymous": false,
      "inputs": [
        {
          "indexed": true,
          "internalType": "address",
          "name": "_to",
          "type": "address"
        },
        {
          "indexed": false,
          "internalType": "uint256",
          "name": "_numberShares",
          "type": "uint256"
        },
        {
          "indexed": false,
          "internalType": "enum PredictionMarket.Vote",
          "name": "_vote",
          "type": "uint8"
        },
        {
          "indexed": false,
          "internalType": "uint256",
          "name": "_totalPrice",
          "type": "uint256"
        }
      ],
      "name": "Withdraw",
      "type": "event"
    },
    {
      "inputs": [
        {
          "internalType": "enum PredictionMarket.Vote",
          "name": "_vote",
          "type": "uint8"
        }
      ],
      "name": "buyShares",
      "outputs": [],
      "stateMutability": "payable",
      "type": "function"
    },
    {
      "inputs": [],
      "name": "marketInfo",
      "outputs": [
        {
          "internalType": "uint256",
          "name": "numberYesShares",
          "type": "uint256"
        },
        {
          "internalType": "uint256",
          "name": "numberNoShares",
          "type": "uint256"
        },
        {
          "internalType": "enum PredictionMarket.Market",
          "name": "market",
          "type": "uint8"
        },
        {
          "internalType": "int256",
          "name": "predictedPrice",
          "type": "int256"
        },
        {
          "internalType": "uint256",
          "name": "endTime",
          "type": "uint256"
        },
        {
          "internalType": "uint256",
          "name": "yesPrice",
          "type": "uint256"
        },
        {
          "internalType": "bool",
          "name": "isResolved",
          "type": "bool"
        }
      ],
      "stateMutability": "view",
      "type": "function"
    },
    {
      "inputs": [],
      "name": "resolveMarket",
      "outputs": [],
      "stateMutability": "nonpayable",
      "type": "function"
    },
    {
      "inputs": [
        {
          "internalType": "address",
          "name": "",
          "type": "address"
        },
        {
          "internalType": "enum PredictionMarket.Vote",
          "name": "",
          "type": "uint8"
        }
      ],
      "name": "sharesPerPerson",
      "outputs": [
        {
          "internalType": "uint256",
          "name": "",
          "type": "uint256"
        }
      ],
      "stateMutability": "view",
      "type": "function"
    },
    {
      "inputs": [],
      "name": "winner",
      "outputs": [
        {
          "internalType": "enum PredictionMarket.Vote",
          "name": "",
          "type": "uint8"
        }
      ],
      "stateMutability": "view",
      "type": "function"
    },
    {
      "inputs": [],
      "name": "winningPerShare",
      "outputs": [
        {
          "internalType": "uint256",
          "name": "",
          "type": "uint256"
        }
      ],
      "stateMutability": "view",
      "type": "function"
    },
    {
      "inputs": [],
      "name": "withdrawWinnings",
      "outputs": [],
      "stateMutability": "nonpayable",
      "type": "function"
    }
  ],
  "bytecode": "0x60806040523480156200001157600080fd5b50604051620015e7380380620015e7833981810160405281019062000037919062000283565b82600460020160006101000a81548160ff02191690836003811115620000625762000061620002f3565b5b0217905550816004600301819055508060048001819055506200008b83620000a560201b60201c565b662386f26fc100006004600501819055505050506200039b565b60006040518060800160405280735498bb86bc934c8d34fda08e81d444153d0d06ad73ffffffffffffffffffffffffffffffffffffffff1673ffffffffffffffffffffffffffffffffffffffff1681526020017331cf013a08c6ac228c94551d535d5bafe19c602a73ffffffffffffffffffffffffffffffffffffffff1673ffffffffffffffffffffffffffffffffffffffff1681526020017386d67c3d38d2bcee722e601025c25a575021c6ea73ffffffffffffffffffffffffffffffffffffffff1673ffffffffffffffffffffffffffffffffffffffff1681526020017334c4c526902d88a3aa98db8a9b802603eb1e347073ffffffffffffffffffffffffffffffffffffffff1673ffffffffffffffffffffffffffffffffffffffff16815250905080826003811115620001e157620001e0620002f3565b5b60048110620001f557620001f462000322565b5b6020020151600360006101000a81548173ffffffffffffffffffffffffffffffffffffffff021916908373ffffffffffffffffffffffffffffffffffffffff1602179055505050565b6000815190506200024f8162000356565b92915050565b600081519050620002668162000367565b92915050565b6000815190506200027d8162000381565b92915050565b6000806000606084860312156200029f576200029e62000351565b5b6000620002af868287016200023e565b9350506020620002c28682870162000255565b9250506040620002d5868287016200026c565b9150509250925092565b6000819050919050565b6000819050919050565b7f4e487b7100000000000000000000000000000000000000000000000000000000600052602160045260246000fd5b7f4e487b7100000000000000000000000000000000000000000000000000000000600052603260045260246000fd5b600080fd5b600481106200036457600080fd5b50565b6200037281620002df565b81146200037e57600080fd5b50565b6200038c81620002e9565b81146200039857600080fd5b50565b61123c80620003ab6000396000f3fe6080604052600436106100705760003560e01c8063979023241161004e57806397902324146100d9578063cc42e83a14610104578063d064a8dc1461011b578063dfbf53ae1461015857610070565b8063031bee00146100755780632b9b55b3146100a657806334f5e9f9146100bd575b600080fd5b34801561008157600080fd5b5061008a610183565b60405161009d9796959493929190610d3b565b60405180910390f35b3480156100b257600080fd5b506100bb6101cd565b005b6100d760048036038101906100d29190610a7d565b6104b3565b005b3480156100e557600080fd5b506100ee6106cd565b6040516100fb9190610ce9565b60405180910390f35b34801561011057600080fd5b506101196106d3565b005b34801561012757600080fd5b50610142600480360381019061013d9190610a3d565b610935565b60405161014f9190610ce9565b60405180910390f35b34801561016457600080fd5b5061016d61095a565b60405161017a9190610c2e565b60405180910390f35b60048060000154908060010154908060020160009054906101000a900460ff16908060030154908060040154908060050154908060060160009054906101000a900460ff16905087565b600460060160009054906101000a900460ff1615610220576040517f08c379a000000000000000000000000000000000000000000000000000000000815260040161021790610c89565b60405180910390fd5b60048001544211610266576040517f08c379a000000000000000000000000000000000000000000000000000000000815260040161025d90610c49565b60405180910390fd5b6000806000600360009054906101000a900473ffffffffffffffffffffffffffffffffffffffff1673ffffffffffffffffffffffffffffffffffffffff1663feaf968c6040518163ffffffff1660e01b815260040160a06040518083038186803b1580156102d357600080fd5b505afa1580156102e7573d6000803e3d6000fd5b505050506040513d601f19601f8201168201806040525081019061030b9190610aaa565b909150508093508194508295505050505b60048001548111156103f657828061033390610f9d565b935050600360009054906101000a900473ffffffffffffffffffffffffffffffffffffffff1673ffffffffffffffffffffffffffffffffffffffff16639a6fc8f5846040518263ffffffff1660e01b81526004016103919190610daa565b60a06040518083038186803b1580156103a957600080fd5b505afa1580156103bd573d6000803e3d6000fd5b505050506040513d601f19601f820116820180604052508101906103e19190610aaa565b9091505080935081945082955050505061031c565b6000600460030154831261043c576000600160006101000a81548160ff0219169083600181111561042a57610429611025565b5b0217905550600460000154905061046f565b60018060006101000a81548160ff0219169083600181111561046157610460611025565b5b021790555060046001015490505b6001600460060160006101000a81548160ff021916908315150217905550600081141561049b57600190505b80476104a79190610e2c565b60028190555050505050565b600460060160009054906101000a900460ff161580156104d7575060048001544211155b610516576040517f08c379a000000000000000000000000000000000000000000000000000000000815260040161050d90610c69565b60405180910390fd5b600080600181111561052b5761052a611025565b5b82600181111561053e5761053d611025565b5b146105605760046005015466470de4df82000061055b9190610eb7565b610567565b6004600501545b9050600081346105779190610e2c565b90506000600181111561058d5761058c611025565b5b8360018111156105a05761059f611025565b5b14156105c75780600460000160008282546105bb9190610dd6565b925050819055506105e4565b80600460010160008282546105dc9190610dd6565b925050819055505b806000803373ffffffffffffffffffffffffffffffffffffffff1673ffffffffffffffffffffffffffffffffffffffff168152602001908152602001600020600085600181111561063857610637611025565b5b600181111561064a57610649611025565b5b815260200190815260200160002060008282546106679190610dd6565b925050819055503373ffffffffffffffffffffffffffffffffffffffff167f4d4ae3655da85b97eeee27a41d5a8d3213008a976617e79db33887645c1378178285346040516106b893929190610d04565b60405180910390a26106c861096d565b505050565b60025481565b600460060160009054906101000a900460ff16610725576040517f08c379a000000000000000000000000000000000000000000000000000000000815260040161071c90610ca9565b60405180910390fd5b60008060003373ffffffffffffffffffffffffffffffffffffffff1673ffffffffffffffffffffffffffffffffffffffff1681526020019081526020016000206000600160009054906101000a900460ff16600181111561078957610788611025565b5b600181111561079b5761079a611025565b5b8152602001908152602001600020549050600081116107ef576040517f08c379a00000000000000000000000000000000000000000000000000000000081526004016107e690610cc9565b60405180910390fd5b60008060003373ffffffffffffffffffffffffffffffffffffffff1673ffffffffffffffffffffffffffffffffffffffff1681526020019081526020016000206000600160009054906101000a900460ff16600181111561085357610852611025565b5b600181111561086557610864611025565b5b8152602001908152602001600020819055506000600254826108879190610e5d565b90503373ffffffffffffffffffffffffffffffffffffffff166108fc829081150290604051600060405180830381858888f193505050501580156108cf573d6000803e3d6000fd5b503373ffffffffffffffffffffffffffffffffffffffff167fc6c74a68f89b63353b582f75a2009daefef14ef389fbf7e30edb6141f414f02883600160009054906101000a900460ff168460405161092993929190610d04565b60405180910390a25050565b6000602052816000526040600020602052806000526040600020600091509150505481565b600160009054906101000a900460ff1681565b60006004600001546004600101546109859190610dd6565b9050600081606460046000015461099c9190610e5d565b6109a69190610e2c565b9050606466470de4df820000826109bd9190610e5d565b6109c79190610e2c565b6004600501819055505050565b6000813590506109e38161119a565b92915050565b6000813590506109f8816111b1565b92915050565b600081519050610a0d816111c1565b92915050565b600081519050610a22816111d8565b92915050565b600081519050610a37816111ef565b92915050565b60008060408385031215610a5457610a53611054565b5b6000610a62858286016109d4565b9250506020610a73858286016109e9565b9150509250929050565b600060208284031215610a9357610a92611054565b5b6000610aa1848285016109e9565b91505092915050565b600080600080600060a08688031215610ac657610ac5611054565b5b6000610ad488828901610a28565b9550506020610ae5888289016109fe565b9450506040610af688828901610a13565b9350506060610b0788828901610a13565b9250506080610b1888828901610a28565b9150509295509295909350565b610b2e81610efd565b82525050565b610b3d81610f79565b82525050565b610b4c81610f8b565b82525050565b610b5b81610f2f565b82525050565b6000610b6e602483610dc5565b9150610b7982611059565b604082019050919050565b6000610b91602683610dc5565b9150610b9c826110a8565b604082019050919050565b6000610bb4602083610dc5565b9150610bbf826110f7565b602082019050919050565b6000610bd7602083610dc5565b9150610be282611120565b602082019050919050565b6000610bfa601a83610dc5565b9150610c0582611149565b602082019050919050565b610c1981610f59565b82525050565b610c2881610f63565b82525050565b6000602082019050610c436000830184610b43565b92915050565b60006020820190508181036000830152610c6281610b61565b9050919050565b60006020820190508181036000830152610c8281610b84565b9050919050565b60006020820190508181036000830152610ca281610ba7565b9050919050565b60006020820190508181036000830152610cc281610bca565b9050919050565b60006020820190508181036000830152610ce281610bed565b9050919050565b6000602082019050610cfe6000830184610c10565b92915050565b6000606082019050610d196000830186610c10565b610d266020830185610b43565b610d336040830184610c10565b949350505050565b600060e082019050610d50600083018a610c10565b610d5d6020830189610c10565b610d6a6040830188610b34565b610d776060830187610b52565b610d846080830186610c10565b610d9160a0830185610c10565b610d9e60c0830184610b25565b98975050505050505050565b6000602082019050610dbf6000830184610c1f565b92915050565b600082825260208201905092915050565b6000610de182610f59565b9150610dec83610f59565b9250827fffffffffffffffffffffffffffffffffffffffffffffffffffffffffffffffff03821115610e2157610e20610fc7565b5b828201905092915050565b6000610e3782610f59565b9150610e4283610f59565b925082610e5257610e51610ff6565b5b828204905092915050565b6000610e6882610f59565b9150610e7383610f59565b9250817fffffffffffffffffffffffffffffffffffffffffffffffffffffffffffffffff0483118215151615610eac57610eab610fc7565b5b828202905092915050565b6000610ec282610f59565b9150610ecd83610f59565b925082821015610ee057610edf610fc7565b5b828203905092915050565b6000610ef682610f39565b9050919050565b60008115159050919050565b6000819050610f1782611172565b919050565b6000819050610f2a82611186565b919050565b6000819050919050565b600073ffffffffffffffffffffffffffffffffffffffff82169050919050565b6000819050919050565b600069ffffffffffffffffffff82169050919050565b6000610f8482610f09565b9050919050565b6000610f9682610f1c565b9050919050565b6000610fa882610f63565b91506000821415610fbc57610fbb610fc7565b5b600182039050919050565b7f4e487b7100000000000000000000000000000000000000000000000000000000600052601160045260246000fd5b7f4e487b7100000000000000000000000000000000000000000000000000000000600052601260045260246000fd5b7f4e487b7100000000000000000000000000000000000000000000000000000000600052602160045260246000fd5b600080fd5b7f43616e6e6f74207265736f6c7665206d61726b6574206265666f726520656e6460008201527f54696d6500000000000000000000000000000000000000000000000000000000602082015250565b7f43616e6e6f742062757920736861726573206166746572206d61726b6574206560008201527f6e6454696d650000000000000000000000000000000000000000000000000000602082015250565b7f4d61726b65742068617320616c7265616479206265656e207265736f6c766564600082015250565b7f4d61726b657420686173206e6f74206265656e207265736f6c76656420796574600082015250565b7f596f752068617665206e6f2077696e6e696e6720736861726573000000000000600082015250565b6004811061118357611182611025565b5b50565b6002811061119757611196611025565b5b50565b6111a381610eeb565b81146111ae57600080fd5b50565b600281106111be57600080fd5b50565b6111ca81610f2f565b81146111d557600080fd5b50565b6111e181610f59565b81146111ec57600080fd5b50565b6111f881610f63565b811461120357600080fd5b5056fea2646970667358221220e76d877e5e63132e09b30b099877ff04db37df01bd11170323a449f36ecfe89864736f6c63430008070033",
  "linkReferences": {},
  "deployedLinkReferences": {}
}