{
  "_format": "hh-sol-artifact-1",
  "contractName": "PredictionMarket",
  "sourceName": "contracts/PredictionMarket.sol",
  "abi": [
    {
      "inputs": [
        {
          "internalType": "enum PredictionMarket.Market",
          "name": "_market",
          "type": "uint8"
        },
        {
          "internalType": "int256",
          "name": "_predictedPrice",
          "type": "int256"
        },
        {
          "internalType": "uint256",
          "name": "_endTime",
          "type": "uint256"
        }
      ],
      "stateMutability": "nonpayable",
      "type": "constructor"
    },
    {
      "inputs": [
        {
          "internalType": "enum PredictionMarket.Vote",
          "name": "_vote",
          "type": "uint8"
        }
      ],
      "name": "buyShares",
      "outputs": [],
      "stateMutability": "payable",
      "type": "function"
    },
    {
      "inputs": [],
      "name": "endTime",
      "outputs": [
        {
          "internalType": "uint256",
          "name": "",
          "type": "uint256"
        }
      ],
      "stateMutability": "view",
      "type": "function"
    },
    {
      "inputs": [],
      "name": "isResolved",
      "outputs": [
        {
          "internalType": "bool",
          "name": "",
          "type": "bool"
        }
      ],
      "stateMutability": "view",
      "type": "function"
    },
    {
      "inputs": [],
      "name": "loser",
      "outputs": [
        {
          "internalType": "enum PredictionMarket.Vote",
          "name": "",
          "type": "uint8"
        }
      ],
      "stateMutability": "view",
      "type": "function"
    },
    {
      "inputs": [],
      "name": "market",
      "outputs": [
        {
          "internalType": "enum PredictionMarket.Market",
          "name": "",
          "type": "uint8"
        }
      ],
      "stateMutability": "view",
      "type": "function"
    },
    {
      "inputs": [
        {
          "internalType": "enum PredictionMarket.Vote",
          "name": "",
          "type": "uint8"
        }
      ],
      "name": "numberShares",
      "outputs": [
        {
          "internalType": "uint256",
          "name": "",
          "type": "uint256"
        }
      ],
      "stateMutability": "view",
      "type": "function"
    },
    {
      "inputs": [],
      "name": "predictedPrice",
      "outputs": [
        {
          "internalType": "int256",
          "name": "",
          "type": "int256"
        }
      ],
      "stateMutability": "view",
      "type": "function"
    },
    {
      "inputs": [],
      "name": "resolveMarket",
      "outputs": [],
      "stateMutability": "nonpayable",
      "type": "function"
    },
    {
      "inputs": [
        {
          "internalType": "address",
          "name": "",
          "type": "address"
        },
        {
          "internalType": "enum PredictionMarket.Vote",
          "name": "",
          "type": "uint8"
        }
      ],
      "name": "sharesPerPerson",
      "outputs": [
        {
          "internalType": "uint256",
          "name": "",
          "type": "uint256"
        }
      ],
      "stateMutability": "view",
      "type": "function"
    },
    {
      "inputs": [],
      "name": "winner",
      "outputs": [
        {
          "internalType": "enum PredictionMarket.Vote",
          "name": "",
          "type": "uint8"
        }
      ],
      "stateMutability": "view",
      "type": "function"
    },
    {
      "inputs": [],
      "name": "winningPerShare",
      "outputs": [
        {
          "internalType": "uint256",
          "name": "",
          "type": "uint256"
        }
      ],
      "stateMutability": "view",
      "type": "function"
    },
    {
      "inputs": [],
      "name": "withdrawWinnings",
      "outputs": [],
      "stateMutability": "nonpayable",
      "type": "function"
    },
    {
      "inputs": [],
      "name": "yesPrice",
      "outputs": [
        {
          "internalType": "uint256",
          "name": "",
          "type": "uint256"
        }
      ],
      "stateMutability": "view",
      "type": "function"
    }
  ],
  "bytecode": "0x60806040526000600660006101000a81548160ff0219169083151502179055503480156200002c57600080fd5b506040516200173738038062001737833981810160405281019062000052919062000293565b82600260006101000a81548160ff021916908360038111156200007a576200007962000303565b5b021790555081600381905550806004819055506200009e83620000b560201b60201c565b662386f26fc10000600581905550505050620003ab565b60006040518060800160405280735498bb86bc934c8d34fda08e81d444153d0d06ad73ffffffffffffffffffffffffffffffffffffffff1673ffffffffffffffffffffffffffffffffffffffff1681526020017331cf013a08c6ac228c94551d535d5bafe19c602a73ffffffffffffffffffffffffffffffffffffffff1673ffffffffffffffffffffffffffffffffffffffff1681526020017386d67c3d38d2bcee722e601025c25a575021c6ea73ffffffffffffffffffffffffffffffffffffffff1673ffffffffffffffffffffffffffffffffffffffff1681526020017334c4c526902d88a3aa98db8a9b802603eb1e347073ffffffffffffffffffffffffffffffffffffffff1673ffffffffffffffffffffffffffffffffffffffff16815250905080826003811115620001f157620001f062000303565b5b6004811062000205576200020462000332565b5b6020020151600860006101000a81548173ffffffffffffffffffffffffffffffffffffffff021916908373ffffffffffffffffffffffffffffffffffffffff1602179055505050565b6000815190506200025f8162000366565b92915050565b600081519050620002768162000377565b92915050565b6000815190506200028d8162000391565b92915050565b600080600060608486031215620002af57620002ae62000361565b5b6000620002bf868287016200024e565b9350506020620002d28682870162000265565b9250506040620002e5868287016200027c565b9150509250925092565b6000819050919050565b6000819050919050565b7f4e487b7100000000000000000000000000000000000000000000000000000000600052602160045260246000fd5b7f4e487b7100000000000000000000000000000000000000000000000000000000600052603260045260246000fd5b600080fd5b600481106200037457600080fd5b50565b6200038281620002ef565b81146200038e57600080fd5b50565b6200039c81620002f9565b8114620003a857600080fd5b50565b61137c80620003bb6000396000f3fe6080604052600436106100c25760003560e01c8063979023241161007f578063d064a8dc11610059578063d064a8dc14610225578063dbb3f53714610262578063dfbf53ae1461028d578063e82898b3146102b8576100c2565b806397902324146101b8578063a27afd67146101e3578063cc42e83a1461020e576100c2565b80632b9b55b3146100c75780633197cbb6146100de57806334f5e9f91461010957806350dfdbfb1461012557806374f72fab1461015057806380f556051461018d575b600080fd5b3480156100d357600080fd5b506100dc6102e3565b005b3480156100ea57600080fd5b506100f3610637565b6040516101009190610ecf565b60405180910390f35b610123600480360381019061011e9190610c12565b61063d565b005b34801561013157600080fd5b5061013a6107dd565b6040516101479190610ecf565b60405180910390f35b34801561015c57600080fd5b5061017760048036038101906101729190610c12565b6107e3565b6040516101849190610ecf565b60405180910390f35b34801561019957600080fd5b506101a26107fb565b6040516101af9190610dde565b60405180910390f35b3480156101c457600080fd5b506101cd61080e565b6040516101da9190610ecf565b60405180910390f35b3480156101ef57600080fd5b506101f8610814565b6040516102059190610e14565b60405180910390f35b34801561021a57600080fd5b5061022361081a565b005b34801561023157600080fd5b5061024c60048036038101906102479190610bd2565b610a14565b6040516102599190610ecf565b60405180910390f35b34801561026e57600080fd5b50610277610a39565b6040516102849190610dc3565b60405180910390f35b34801561029957600080fd5b506102a2610a4c565b6040516102af9190610df9565b60405180910390f35b3480156102c457600080fd5b506102cd610a5f565b6040516102da9190610df9565b60405180910390f35b600660009054906101000a900460ff1615610333576040517f08c379a000000000000000000000000000000000000000000000000000000000815260040161032a90610e6f565b60405180910390fd5b6004544211610377576040517f08c379a000000000000000000000000000000000000000000000000000000000815260040161036e90610e2f565b60405180910390fd5b6000806000600860009054906101000a900473ffffffffffffffffffffffffffffffffffffffff1673ffffffffffffffffffffffffffffffffffffffff1663feaf968c6040518163ffffffff1660e01b815260040160a06040518083038186803b1580156103e457600080fd5b505afa1580156103f8573d6000803e3d6000fd5b505050506040513d601f19601f8201168201806040525081019061041c9190610c3f565b909150508093508194508295505050505b600454811115610505578280610442906110dd565b935050600860009054906101000a900473ffffffffffffffffffffffffffffffffffffffff1673ffffffffffffffffffffffffffffffffffffffff16639a6fc8f5846040518263ffffffff1660e01b81526004016104a09190610eea565b60a06040518083038186803b1580156104b857600080fd5b505afa1580156104cc573d6000803e3d6000fd5b505050506040513d601f19601f820116820180604052508101906104f09190610c3f565b9091505080935081945082955050505061042d565b6003548212610569576000600660016101000a81548160ff0219169083600181111561053457610533611165565b5b02179055506001600660026101000a81548160ff0219169083600181111561055f5761055e611165565b5b02179055506105c0565b6001600660016101000a81548160ff0219169083600181111561058f5761058e611165565b5b02179055506000600660026101000a81548160ff021916908360018111156105ba576105b9611165565b5b02179055505b6001600660006101000a81548160ff021916908315150217905550600080600660019054906101000a900460ff166001811115610600576105ff611165565b5b600181111561061257610611611165565b5b8152602001908152602001600020544761062c9190610f6c565b600781905550505050565b60045481565b600660009054906101000a900460ff1615801561065c57506004544211155b61069b576040517f08c379a000000000000000000000000000000000000000000000000000000000815260040161069290610e4f565b60405180910390fd5b60008060018111156106b0576106af611165565b5b8260018111156106c3576106c2611165565b5b146106e25760055466470de4df8200006106dd9190610ff7565b6106e6565b6005545b9050600081346106f69190610f6c565b90508060008085600181111561070f5761070e611165565b5b600181111561072157610720611165565b5b8152602001908152602001600020600082825461073e9190610f16565b9250508190555080600160003373ffffffffffffffffffffffffffffffffffffffff1673ffffffffffffffffffffffffffffffffffffffff168152602001908152602001600020600085600181111561079a57610799611165565b5b60018111156107ac576107ab611165565b5b815260200190815260200160002060008282546107c99190610f16565b925050819055506107d8610a72565b505050565b60055481565b60006020528060005260406000206000915090505481565b600260009054906101000a900460ff1681565b60075481565b60035481565b600660009054906101000a900460ff16610869576040517f08c379a000000000000000000000000000000000000000000000000000000000815260040161086090610e8f565b60405180910390fd5b6000600160003373ffffffffffffffffffffffffffffffffffffffff1673ffffffffffffffffffffffffffffffffffffffff1681526020019081526020016000206000600660019054906101000a900460ff1660018111156108ce576108cd611165565b5b60018111156108e0576108df611165565b5b815260200190815260200160002054905060008111610934576040517f08c379a000000000000000000000000000000000000000000000000000000000815260040161092b90610eaf565b60405180910390fd5b6000600160003373ffffffffffffffffffffffffffffffffffffffff1673ffffffffffffffffffffffffffffffffffffffff1681526020019081526020016000206000600660019054906101000a900460ff16600181111561099957610998611165565b5b60018111156109ab576109aa611165565b5b8152602001908152602001600020819055503373ffffffffffffffffffffffffffffffffffffffff166108fc600754836109e59190610f9d565b9081150290604051600060405180830381858888f19350505050158015610a10573d6000803e3d6000fd5b5050565b6001602052816000526040600020602052806000526040600020600091509150505481565b600660009054906101000a900460ff1681565b600660019054906101000a900460ff1681565b600660029054906101000a900460ff1681565b6000806000806001811115610a8a57610a89611165565b5b6001811115610a9c57610a9b611165565b5b815260200190815260200160002054600080600180811115610ac157610ac0611165565b5b6001811115610ad357610ad2611165565b5b815260200190815260200160002054610aec9190610f16565b90506000816064600080806001811115610b0957610b08611165565b5b6001811115610b1b57610b1a611165565b5b815260200190815260200160002054610b349190610f9d565b610b3e9190610f6c565b9050606466470de4df82000082610b559190610f9d565b610b5f9190610f6c565b6005819055505050565b600081359050610b78816112da565b92915050565b600081359050610b8d816112f1565b92915050565b600081519050610ba281611301565b92915050565b600081519050610bb781611318565b92915050565b600081519050610bcc8161132f565b92915050565b60008060408385031215610be957610be8611194565b5b6000610bf785828601610b69565b9250506020610c0885828601610b7e565b9150509250929050565b600060208284031215610c2857610c27611194565b5b6000610c3684828501610b7e565b91505092915050565b600080600080600060a08688031215610c5b57610c5a611194565b5b6000610c6988828901610bbd565b9550506020610c7a88828901610b93565b9450506040610c8b88828901610ba8565b9350506060610c9c88828901610ba8565b9250506080610cad88828901610bbd565b9150509295509295909350565b610cc38161103d565b82525050565b610cd2816110b9565b82525050565b610ce1816110cb565b82525050565b610cf08161106f565b82525050565b6000610d03602483610f05565b9150610d0e82611199565b604082019050919050565b6000610d26602683610f05565b9150610d31826111e8565b604082019050919050565b6000610d49602083610f05565b9150610d5482611237565b602082019050919050565b6000610d6c602083610f05565b9150610d7782611260565b602082019050919050565b6000610d8f601a83610f05565b9150610d9a82611289565b602082019050919050565b610dae81611099565b82525050565b610dbd816110a3565b82525050565b6000602082019050610dd86000830184610cba565b92915050565b6000602082019050610df36000830184610cc9565b92915050565b6000602082019050610e0e6000830184610cd8565b92915050565b6000602082019050610e296000830184610ce7565b92915050565b60006020820190508181036000830152610e4881610cf6565b9050919050565b60006020820190508181036000830152610e6881610d19565b9050919050565b60006020820190508181036000830152610e8881610d3c565b9050919050565b60006020820190508181036000830152610ea881610d5f565b9050919050565b60006020820190508181036000830152610ec881610d82565b9050919050565b6000602082019050610ee46000830184610da5565b92915050565b6000602082019050610eff6000830184610db4565b92915050565b600082825260208201905092915050565b6000610f2182611099565b9150610f2c83611099565b9250827fffffffffffffffffffffffffffffffffffffffffffffffffffffffffffffffff03821115610f6157610f60611107565b5b828201905092915050565b6000610f7782611099565b9150610f8283611099565b925082610f9257610f91611136565b5b828204905092915050565b6000610fa882611099565b9150610fb383611099565b9250817fffffffffffffffffffffffffffffffffffffffffffffffffffffffffffffffff0483118215151615610fec57610feb611107565b5b828202905092915050565b600061100282611099565b915061100d83611099565b9250828210156110205761101f611107565b5b828203905092915050565b600061103682611079565b9050919050565b60008115159050919050565b6000819050611057826112b2565b919050565b600081905061106a826112c6565b919050565b6000819050919050565b600073ffffffffffffffffffffffffffffffffffffffff82169050919050565b6000819050919050565b600069ffffffffffffffffffff82169050919050565b60006110c482611049565b9050919050565b60006110d68261105c565b9050919050565b60006110e8826110a3565b915060008214156110fc576110fb611107565b5b600182039050919050565b7f4e487b7100000000000000000000000000000000000000000000000000000000600052601160045260246000fd5b7f4e487b7100000000000000000000000000000000000000000000000000000000600052601260045260246000fd5b7f4e487b7100000000000000000000000000000000000000000000000000000000600052602160045260246000fd5b600080fd5b7f43616e6e6f74207265736f6c7665206d61726b6574206265666f726520656e6460008201527f54696d6500000000000000000000000000000000000000000000000000000000602082015250565b7f43616e6e6f742062757920736861726573206166746572206d61726b6574206560008201527f6e6454696d650000000000000000000000000000000000000000000000000000602082015250565b7f4d61726b65742068617320616c7265616479206265656e207265736f6c766564600082015250565b7f4d61726b657420686173206e6f74206265656e207265736f6c76656420796574600082015250565b7f596f752068617665206e6f2077696e6e696e6720736861726573000000000000600082015250565b600481106112c3576112c2611165565b5b50565b600281106112d7576112d6611165565b5b50565b6112e38161102b565b81146112ee57600080fd5b50565b600281106112fe57600080fd5b50565b61130a8161106f565b811461131557600080fd5b50565b61132181611099565b811461132c57600080fd5b50565b611338816110a3565b811461134357600080fd5b5056fea2646970667358221220750652c58ec97802c21a0485ee0a574ed4174e3959e4ac32bd7bc1ebaff8651b64736f6c63430008070033",
  "linkReferences": {},
  "deployedLinkReferences": {}
}